{
  "abi": [
    {
      "type": "fallback",
      "stateMutability": "nonpayable"
    },
    {
      "type": "function",
      "name": "MIN_ORDER_SIZE",
      "inputs": [],
      "outputs": [
        {
          "name": "",
          "type": "uint16",
          "internalType": "uint16"
        }
      ],
      "stateMutability": "view"
    },
    {
      "type": "function",
      "name": "VERSION",
      "inputs": [],
      "outputs": [
        {
          "name": "",
          "type": "uint8",
          "internalType": "uint8"
        }
      ],
      "stateMutability": "view"
    },
    {
      "type": "function",
      "name": "deposit",
      "inputs": [
        {
          "name": "_token",
          "type": "address",
          "internalType": "address"
        },
        {
          "name": "_amount",
          "type": "uint160",
          "internalType": "uint160"
        }
      ],
      "outputs": [],
      "stateMutability": "nonpayable"
    },
    {
      "type": "function",
      "name": "destinationSettlers",
      "inputs": [
        {
          "name": "chainId",
          "type": "uint256",
          "internalType": "uint256"
        }
      ],
      "outputs": [
        {
          "name": "settler",
          "type": "address",
          "internalType": "address"
        }
      ],
      "stateMutability": "view"
    },
    {
      "type": "function",
      "name": "eip712Domain",
      "inputs": [],
      "outputs": [
        {
          "name": "fields",
          "type": "bytes1",
          "internalType": "bytes1"
        },
        {
          "name": "name",
          "type": "string",
          "internalType": "string"
        },
        {
          "name": "version",
          "type": "string",
          "internalType": "string"
        },
        {
          "name": "chainId",
          "type": "uint256",
          "internalType": "uint256"
        },
        {
          "name": "verifyingContract",
          "type": "address",
          "internalType": "address"
        },
        {
          "name": "salt",
          "type": "bytes32",
          "internalType": "bytes32"
        },
        {
          "name": "extensions",
          "type": "uint256[]",
          "internalType": "uint256[]"
        }
      ],
      "stateMutability": "view"
    },
    {
      "type": "function",
      "name": "factory",
      "inputs": [],
      "outputs": [
        {
          "name": "_factory",
          "type": "address",
          "internalType": "address"
        }
      ],
      "stateMutability": "pure"
    },
    {
      "type": "function",
      "name": "fill",
      "inputs": [
        {
          "name": "_orderId",
          "type": "bytes32",
          "internalType": "bytes32"
        },
        {
          "name": "_originData",
          "type": "bytes",
          "internalType": "bytes"
        },
        {
          "name": "_fillerData",
          "type": "bytes",
          "internalType": "bytes"
        }
      ],
      "outputs": [],
      "stateMutability": "nonpayable"
    },
    {
      "type": "function",
      "name": "lockedTradeBalance",
      "inputs": [
        {
          "name": "holder",
          "type": "address",
          "internalType": "address"
        },
        {
          "name": "token",
          "type": "address",
          "internalType": "address"
        }
      ],
      "outputs": [
        {
          "name": "amount",
          "type": "uint256",
          "internalType": "uint256"
        }
      ],
      "stateMutability": "view"
    },
    {
      "type": "function",
      "name": "multicall",
      "inputs": [
        {
          "name": "data",
          "type": "bytes[]",
          "internalType": "bytes[]"
        }
      ],
      "outputs": [
        {
          "name": "",
          "type": "bytes[]",
          "internalType": "bytes[]"
        }
      ],
      "stateMutability": "payable"
    },
    {
      "type": "function",
      "name": "open",
      "inputs": [
        {
          "name": "_order",
          "type": "tuple",
          "internalType": "struct OnchainCrossChainOrder",
          "components": [
            {
              "name": "fillDeadline",
              "type": "uint32",
              "internalType": "uint32"
            },
            {
              "name": "orderDataType",
              "type": "bytes32",
              "internalType": "bytes32"
            },
            {
              "name": "orderData",
              "type": "bytes",
              "internalType": "bytes"
            }
          ]
        }
      ],
      "outputs": [],
      "stateMutability": "nonpayable"
    },
    {
      "type": "function",
      "name": "openFor",
      "inputs": [
        {
          "name": "_order",
          "type": "tuple",
          "internalType": "struct GaslessCrossChainOrder",
          "components": [
            {
              "name": "originSettler",
              "type": "address",
              "internalType": "address"
            },
            {
              "name": "user",
              "type": "address",
              "internalType": "address"
            },
            {
              "name": "nonce",
              "type": "uint256",
              "internalType": "uint256"
            },
            {
              "name": "originChainId",
              "type": "uint256",
              "internalType": "uint256"
            },
            {
              "name": "openDeadline",
              "type": "uint32",
              "internalType": "uint32"
            },
            {
              "name": "fillDeadline",
              "type": "uint32",
              "internalType": "uint32"
            },
            {
              "name": "orderDataType",
              "type": "bytes32",
              "internalType": "bytes32"
            },
            {
              "name": "orderData",
              "type": "bytes",
              "internalType": "bytes"
            }
          ]
        },
        {
          "name": "_signature",
          "type": "bytes",
          "internalType": "bytes"
        },
        {
          "name": "_originFillerData",
          "type": "bytes",
          "internalType": "bytes"
        }
      ],
      "outputs": [],
      "stateMutability": "nonpayable"
    },
    {
      "type": "function",
      "name": "owner",
      "inputs": [],
      "outputs": [
        {
          "name": "_factory",
          "type": "address",
          "internalType": "address"
        }
      ],
      "stateMutability": "pure"
    },
    {
      "type": "function",
      "name": "resolve",
      "inputs": [
        {
          "name": "_order",
          "type": "tuple",
          "internalType": "struct OnchainCrossChainOrder",
          "components": [
            {
              "name": "fillDeadline",
              "type": "uint32",
              "internalType": "uint32"
            },
            {
              "name": "orderDataType",
              "type": "bytes32",
              "internalType": "bytes32"
            },
            {
              "name": "orderData",
              "type": "bytes",
              "internalType": "bytes"
            }
          ]
        }
      ],
      "outputs": [
        {
          "name": "_resolvedOrder",
          "type": "tuple",
          "internalType": "struct ResolvedCrossChainOrder",
          "components": [
            {
              "name": "user",
              "type": "address",
              "internalType": "address"
            },
            {
              "name": "originChainId",
              "type": "uint256",
              "internalType": "uint256"
            },
            {
              "name": "openDeadline",
              "type": "uint32",
              "internalType": "uint32"
            },
            {
              "name": "fillDeadline",
              "type": "uint32",
              "internalType": "uint32"
            },
            {
              "name": "orderId",
              "type": "bytes32",
              "internalType": "bytes32"
            },
            {
              "name": "maxSpent",
              "type": "tuple[]",
              "internalType": "struct Output[]",
              "components": [
                {
                  "name": "token",
                  "type": "bytes32",
                  "internalType": "bytes32"
                },
                {
                  "name": "amount",
                  "type": "uint256",
                  "internalType": "uint256"
                },
                {
                  "name": "recipient",
                  "type": "bytes32",
                  "internalType": "bytes32"
                },
                {
                  "name": "chainId",
                  "type": "uint256",
                  "internalType": "uint256"
                }
              ]
            },
            {
              "name": "minReceived",
              "type": "tuple[]",
              "internalType": "struct Output[]",
              "components": [
                {
                  "name": "token",
                  "type": "bytes32",
                  "internalType": "bytes32"
                },
                {
                  "name": "amount",
                  "type": "uint256",
                  "internalType": "uint256"
                },
                {
                  "name": "recipient",
                  "type": "bytes32",
                  "internalType": "bytes32"
                },
                {
                  "name": "chainId",
                  "type": "uint256",
                  "internalType": "uint256"
                }
              ]
            },
            {
              "name": "fillInstructions",
              "type": "tuple[]",
              "internalType": "struct FillInstruction[]",
              "components": [
                {
                  "name": "destinationChainId",
                  "type": "uint64",
                  "internalType": "uint64"
                },
                {
                  "name": "destinationSettler",
                  "type": "bytes32",
                  "internalType": "bytes32"
                },
                {
                  "name": "originData",
                  "type": "bytes",
                  "internalType": "bytes"
                }
              ]
            }
          ]
        }
      ],
      "stateMutability": "view"
    },
    {
      "type": "function",
      "name": "resolveFor",
      "inputs": [
        {
          "name": "_order",
          "type": "tuple",
          "internalType": "struct GaslessCrossChainOrder",
          "components": [
            {
              "name": "originSettler",
              "type": "address",
              "internalType": "address"
            },
            {
              "name": "user",
              "type": "address",
              "internalType": "address"
            },
            {
              "name": "nonce",
              "type": "uint256",
              "internalType": "uint256"
            },
            {
              "name": "originChainId",
              "type": "uint256",
              "internalType": "uint256"
            },
            {
              "name": "openDeadline",
              "type": "uint32",
              "internalType": "uint32"
            },
            {
              "name": "fillDeadline",
              "type": "uint32",
              "internalType": "uint32"
            },
            {
              "name": "orderDataType",
              "type": "bytes32",
              "internalType": "bytes32"
            },
            {
              "name": "orderData",
              "type": "bytes",
              "internalType": "bytes"
            }
          ]
        },
        {
          "name": "_originFillerData",
          "type": "bytes",
          "internalType": "bytes"
        }
      ],
      "outputs": [
        {
          "name": "_resolvedOrder",
          "type": "tuple",
          "internalType": "struct ResolvedCrossChainOrder",
          "components": [
            {
              "name": "user",
              "type": "address",
              "internalType": "address"
            },
            {
              "name": "originChainId",
              "type": "uint256",
              "internalType": "uint256"
            },
            {
              "name": "openDeadline",
              "type": "uint32",
              "internalType": "uint32"
            },
            {
              "name": "fillDeadline",
              "type": "uint32",
              "internalType": "uint32"
            },
            {
              "name": "orderId",
              "type": "bytes32",
              "internalType": "bytes32"
            },
            {
              "name": "maxSpent",
              "type": "tuple[]",
              "internalType": "struct Output[]",
              "components": [
                {
                  "name": "token",
                  "type": "bytes32",
                  "internalType": "bytes32"
                },
                {
                  "name": "amount",
                  "type": "uint256",
                  "internalType": "uint256"
                },
                {
                  "name": "recipient",
                  "type": "bytes32",
                  "internalType": "bytes32"
                },
                {
                  "name": "chainId",
                  "type": "uint256",
                  "internalType": "uint256"
                }
              ]
            },
            {
              "name": "minReceived",
              "type": "tuple[]",
              "internalType": "struct Output[]",
              "components": [
                {
                  "name": "token",
                  "type": "bytes32",
                  "internalType": "bytes32"
                },
                {
                  "name": "amount",
                  "type": "uint256",
                  "internalType": "uint256"
                },
                {
                  "name": "recipient",
                  "type": "bytes32",
                  "internalType": "bytes32"
                },
                {
                  "name": "chainId",
                  "type": "uint256",
                  "internalType": "uint256"
                }
              ]
            },
            {
              "name": "fillInstructions",
              "type": "tuple[]",
              "internalType": "struct FillInstruction[]",
              "components": [
                {
                  "name": "destinationChainId",
                  "type": "uint64",
                  "internalType": "uint64"
                },
                {
                  "name": "destinationSettler",
                  "type": "bytes32",
                  "internalType": "bytes32"
                },
                {
                  "name": "originData",
                  "type": "bytes",
                  "internalType": "bytes"
                }
              ]
            }
          ]
        }
      ],
      "stateMutability": "view"
    },
    {
      "type": "function",
      "name": "topOrderId",
      "inputs": [],
      "outputs": [
        {
          "name": "",
          "type": "uint256",
          "internalType": "uint256"
        }
      ],
      "stateMutability": "view"
    },
    {
      "type": "function",
      "name": "tradeBalance",
      "inputs": [
        {
          "name": "holder",
          "type": "address",
          "internalType": "address"
        },
        {
          "name": "token",
          "type": "address",
          "internalType": "address"
        }
      ],
      "outputs": [
        {
          "name": "amount",
          "type": "uint256",
          "internalType": "uint256"
        }
      ],
      "stateMutability": "view"
    },
    {
      "type": "function",
      "name": "unlockForCanceledOrder",
      "inputs": [
        {
          "name": "_orderId",
          "type": "uint256",
          "internalType": "uint256"
        }
      ],
      "outputs": [],
      "stateMutability": "nonpayable"
    },
    {
      "type": "function",
      "name": "withdraw",
      "inputs": [
        {
          "name": "_tokenContract",
          "type": "address",
          "internalType": "address"
        },
        {
          "name": "_amount",
          "type": "uint160",
          "internalType": "uint160"
        }
      ],
      "outputs": [],
      "stateMutability": "nonpayable"
    },
    {
      "type": "event",
      "name": "LockedForOrder",
      "inputs": [
        {
          "name": "user",
          "type": "address",
          "indexed": true,
          "internalType": "address"
        },
        {
          "name": "tokenContract",
          "type": "address",
          "indexed": true,
          "internalType": "address"
        },
        {
          "name": "amount",
          "type": "uint160",
          "indexed": false,
          "internalType": "uint160"
        },
        {
          "name": "orderId",
          "type": "uint256",
          "indexed": false,
          "internalType": "uint256"
        },
        {
          "name": "crossChainOrderId",
          "type": "bytes32",
          "indexed": false,
          "internalType": "bytes32"
        }
      ],
      "anonymous": false
    },
    {
      "type": "event",
      "name": "Open",
      "inputs": [
        {
          "name": "orderId",
          "type": "bytes32",
          "indexed": true,
          "internalType": "bytes32"
        },
        {
          "name": "resolvedOrder",
          "type": "tuple",
          "indexed": false,
          "internalType": "struct ResolvedCrossChainOrder",
          "components": [
            {
              "name": "user",
              "type": "address",
              "internalType": "address"
            },
            {
              "name": "originChainId",
              "type": "uint256",
              "internalType": "uint256"
            },
            {
              "name": "openDeadline",
              "type": "uint32",
              "internalType": "uint32"
            },
            {
              "name": "fillDeadline",
              "type": "uint32",
              "internalType": "uint32"
            },
            {
              "name": "orderId",
              "type": "bytes32",
              "internalType": "bytes32"
            },
            {
              "name": "maxSpent",
              "type": "tuple[]",
              "internalType": "struct Output[]",
              "components": [
                {
                  "name": "token",
                  "type": "bytes32",
                  "internalType": "bytes32"
                },
                {
                  "name": "amount",
                  "type": "uint256",
                  "internalType": "uint256"
                },
                {
                  "name": "recipient",
                  "type": "bytes32",
                  "internalType": "bytes32"
                },
                {
                  "name": "chainId",
                  "type": "uint256",
                  "internalType": "uint256"
                }
              ]
            },
            {
              "name": "minReceived",
              "type": "tuple[]",
              "internalType": "struct Output[]",
              "components": [
                {
                  "name": "token",
                  "type": "bytes32",
                  "internalType": "bytes32"
                },
                {
                  "name": "amount",
                  "type": "uint256",
                  "internalType": "uint256"
                },
                {
                  "name": "recipient",
                  "type": "bytes32",
                  "internalType": "bytes32"
                },
                {
                  "name": "chainId",
                  "type": "uint256",
                  "internalType": "uint256"
                }
              ]
            },
            {
              "name": "fillInstructions",
              "type": "tuple[]",
              "internalType": "struct FillInstruction[]",
              "components": [
                {
                  "name": "destinationChainId",
                  "type": "uint64",
                  "internalType": "uint64"
                },
                {
                  "name": "destinationSettler",
                  "type": "bytes32",
                  "internalType": "bytes32"
                },
                {
                  "name": "originData",
                  "type": "bytes",
                  "internalType": "bytes"
                }
              ]
            }
          ]
        }
      ],
      "anonymous": false
    },
    {
      "type": "event",
      "name": "OrderCanceled",
      "inputs": [
        {
          "name": "orderId",
          "type": "uint256",
          "indexed": false,
          "internalType": "uint256"
        },
        {
          "name": "crossChainOrderId",
          "type": "bytes32",
          "indexed": false,
          "internalType": "bytes32"
        }
      ],
      "anonymous": false
    },
    {
      "type": "event",
      "name": "TokenDeposited",
      "inputs": [
        {
          "name": "user",
          "type": "address",
          "indexed": true,
          "internalType": "address"
        },
        {
          "name": "tokenContract",
          "type": "address",
          "indexed": true,
          "internalType": "address"
        },
        {
          "name": "amount",
          "type": "uint160",
          "indexed": false,
          "internalType": "uint160"
        }
      ],
      "anonymous": false
    },
    {
      "type": "event",
      "name": "TokenWithdrawn",
      "inputs": [
        {
          "name": "user",
          "type": "address",
          "indexed": true,
          "internalType": "address"
        },
        {
          "name": "tokenContract",
          "type": "address",
          "indexed": true,
          "internalType": "address"
        },
        {
          "name": "amount",
          "type": "uint160",
          "indexed": false,
          "internalType": "uint160"
        }
      ],
      "anonymous": false
    },
    {
      "type": "event",
      "name": "TradeSettled",
      "inputs": [
        {
          "name": "maker",
          "type": "address",
          "indexed": true,
          "internalType": "address"
        },
        {
          "name": "taker",
          "type": "address",
          "indexed": true,
          "internalType": "address"
        },
        {
          "name": "amount",
          "type": "uint160",
          "indexed": false,
          "internalType": "uint160"
        },
        {
          "name": "fees",
          "type": "uint160",
          "indexed": false,
          "internalType": "uint160"
        },
        {
          "name": "repaymentChainId",
          "type": "uint256",
          "indexed": false,
          "internalType": "uint256"
        },
        {
          "name": "crossChainOrderId",
          "type": "bytes32",
          "indexed": false,
          "internalType": "bytes32"
        }
      ],
      "anonymous": false
    },
    {
      "type": "event",
      "name": "UnlockedForCanceledOrder",
      "inputs": [
        {
          "name": "orderId",
          "type": "uint256",
          "indexed": false,
          "internalType": "uint256"
        },
        {
          "name": "crossChainOrderId",
          "type": "bytes32",
          "indexed": false,
          "internalType": "bytes32"
        }
      ],
      "anonymous": false
    },
    {
      "type": "error",
      "name": "BLOCK_NOT_CONFIRMED",
      "inputs": []
    },
    {
      "type": "error",
      "name": "INSUFFICIENT_AVAILABLE_BALANCE",
      "inputs": []
    },
    {
      "type": "error",
      "name": "INSUFFICIENT_BALANCE",
      "inputs": [
        {
          "name": "available",
          "type": "uint256",
          "internalType": "uint256"
        },
        {
          "name": "required",
          "type": "uint160",
          "internalType": "uint160"
        }
      ]
    },
    {
      "type": "error",
      "name": "INVALID_INTENT",
      "inputs": []
    },
    {
      "type": "error",
      "name": "INVALID_SIGNER",
      "inputs": []
    },
    {
      "type": "error",
      "name": "MINIMUM_ORDER_AMOUNT",
      "inputs": [
        {
          "name": "amount",
          "type": "uint160",
          "internalType": "uint160"
        }
      ]
    },
    {
      "type": "error",
      "name": "ORDER_ALREADY_CANCELED",
      "inputs": []
    },
    {
      "type": "error",
      "name": "ORDER_ALREADY_EXISTS",
      "inputs": [
        {
          "name": "orderId",
          "type": "uint256",
          "internalType": "uint256"
        }
      ]
    },
    {
      "type": "error",
      "name": "ORDER_DOES_NOT_EXIST",
      "inputs": []
    },
    {
      "type": "error",
      "name": "ORDER_LARGER_THAN_LOCKED_BALANCE",
      "inputs": []
    },
    {
      "type": "error",
      "name": "ORDER_NOT_CANCELED",
      "inputs": []
    },
    {
      "type": "error",
      "name": "ZERO_AMOUNT",
      "inputs": []
    }
  ],
  "bytecode": {
    "object": "0x61012060405234801561001157600080fd5b50306080524660a05260608061002561008e565b815160209283012081519183019190912060c082905260e0819052604080517f8b73c3c69bb8fe3d512ecc4cf759cc79239f7b179b0ffacaa9a75d522b39400f8152938401929092529082015246606082015230608082015260a0902061010052506100dc9050565b60408051808201909152600681526526b4b23934b160d11b602082015260606100b760026100bd565b90509091565b6060604051604081016040526001815282603001602082015392915050565b60805160a05160c05160e0516101005161402f6101206000396000612e6701526000612f2101526000612efb01526000612eab01526000612e88015261402f6000f3fe6080604052600436106101295760003560e01c80638b1db0f3116100a5578063ac9650d811610074578063d3f82d8e11610059578063d3f82d8e14610393578063e917a962146103bb578063ffa1ad74146103db57600080fd5b8063ac9650d81461034e578063c45a01551461036e57600080fd5b80638b1db0f3146102a85780638d7b2227146102c85780638da5cb5b1461031657806399a3bd231461033857600080fd5b806358bdac3c116100fc57806382e2c43f116100e157806382e2c43f14610240578063844fac8e1461026057806384b0196e1461028057600080fd5b806358bdac3c146101e85780637e8d29d61461020857600080fd5b806303fde2551461012e57806319d5f0c31461015057806322bcd51a1461019b57806341b477dd146101c8575b600080fd5b34801561013a57600080fd5b5061014e6101493660046130d2565b610402565b005b34801561015c57600080fd5b5061018861016b3660046130d2565b600360209081526000928352604080842090915290825290205481565b6040519081526020015b60405180910390f35b3480156101a757600080fd5b506101bb6101b636600461316d565b610411565b604051610192919061330a565b3480156101d457600080fd5b506101bb6101e33660046133c4565b610486565b3480156101f457600080fd5b5061014e610203366004613406565b6104f7565b34801561021457600080fd5b506101886102233660046130d2565b600460209081526000928352604080842090915290825290205481565b34801561024c57600080fd5b5061014e61025b36600461341f565b6107da565b34801561026c57600080fd5b5061014e61027b36600461349e565b6109a2565b34801561028c57600080fd5b50610295610bca565b60405161019297969594939291906134f6565b3480156102b457600080fd5b5061014e6102c33660046130d2565b610c0d565b3480156102d457600080fd5b506102fe6102e3366004613406565b6005602052600090815260409020546001600160a01b031681565b6040516001600160a01b039091168152602001610192565b34801561032257600080fd5b503660011981013560f01c90033560601c6102fe565b34801561034457600080fd5b5061018860005481565b61036161035c3660046135aa565b610c18565b6040516101929190613621565b34801561037a57600080fd5b503660011981013560f01c90036014013560601c6102fe565b34801561039f57600080fd5b506103a8600a81565b60405161ffff9091168152602001610192565b3480156103c757600080fd5b5061014e6103d63660046133c4565b610c3d565b3480156103e757600080fd5b506103f0600281565b60405160ff9091168152602001610192565b61040d338383610d9d565b5050565b61047160405180610100016040528060006001600160a01b0316815260200160008152602001600063ffffffff168152602001600063ffffffff168152602001600080191681526020016060815260200160608152602001606081525090565b61047c848484611062565b9695505050505050565b6104e660405180610100016040528060006001600160a01b0316815260200160008152602001600063ffffffff168152602001600063ffffffff168152602001600080191681526020016060815260200160608152602001606081525090565b6104ef8261143e565b949350505050565b600081815260016020818152604092839020835160a08101855281546001600160a01b038082168084527401000000000000000000000000000000000000000090920460ff161515948301949094529382015483169481019490945260028101549091166060840152600301546080830152600a11156105b65780516040517f7ccfd2ff0000000000000000000000000000000000000000000000000000000081526001600160a01b0390911660048201526024015b60405180910390fd5b805160608201516001600160a01b039081166000908152600460209081526040808320818701518516845290915290205491161115610621576040517fee9f7c3e00000000000000000000000000000000000000000000000000000000815260040160405180910390fd5b806020015161065c576040517f7c78d56400000000000000000000000000000000000000000000000000000000815260040160405180910390fd5b60008281526002602052604090205443116106a3576040517fba179b3e00000000000000000000000000000000000000000000000000000000815260040160405180910390fd5b805160608201516001600160a01b0390811660009081526004602090815260408083208187015185168452909152812080549290931692916106e69084906136d3565b9091555050805160608201516001600160a01b03908116600090815260036020818152604080842081880151861685528252808420805495909616909401909455858252600180855283832080547fffffffffffffffffffffff00000000000000000000000000000000000000000016815590810180547fffffffffffffffffffffffff000000000000000000000000000000000000000090811690915560028083018054909216909155910182905583528181205560808301518151858152928301527fa6e0ab6ebfa0d06527a5aea03f513f4221055486822c5024fe1fc2fe3191da9f91015b60405180910390a15050565b60006107e8848601866137c6565b90506107f58184846117f1565b60038160400151600681111561080d5761080d613862565b60ff161015610848576040517f3cf5125f00000000000000000000000000000000000000000000000000000000815260040160405180910390fd5b60058160400151600681111561086057610860613862565b60ff16101561093c5760008160200151600181111561088157610881613862565b036108d55760608101516080820151825160a084015160c08501516108d094939291908b6004886040015160068111156108bd576108bd613862565b146108c95760006118e3565b60016118e3565b61099a565b6001816020015160018111156108ed576108ed613862565b036108d05760608101516080820151825160a084015160c08501516108d094939291908b60048860400151600681111561092957610929613862565b14610935576000611d71565b6001611d71565b60058160400151600681111561095457610954613862565b03610970576108d0816060015182600001518360a00151612036565b60068160400151600681111561098857610988613862565b0361099a5761099a8160e00151612269565b505050505050565b60008060006109b2888686611062565b9194509250905060028360068111156109cd576109cd613862565b14610b38573660011981013560f01c90036028013560601c632b67b5706109fa60408b0160208c01613891565b848a8a6040518563ffffffff1660e01b8152600401610a1c94939291906138d9565b600060405180830381600087803b158015610a3657600080fd5b505af1158015610a4a573d6000803e3d6000fd5b5060019250610a57915050565b836006811115610a6957610a69613862565b03610af857610ab7610a8160408a0160208b01613891565b8351805160209091015160c08501518051600090610aa157610aa1613965565b60200260200101516020015185608001516123df565b80608001517fa576d0af275d0c6207ef43ceee8c498a5d7a26b8157a32d3fdf361e64371628c82604051610aeb919061330a565b60405180910390a2610bc0565b6000836006811115610b0c57610b0c613862565b03610b3357610b33610b2460408a0160208b01613891565b83518051602090910151610d9d565b610bc0565b6002836006811115610b4c57610b4c613862565b03610bc057610b5c888888612965565b610b83610b6f60408a0160208b01613891565b835180516020909101516080850151612a3e565b80608001517fa576d0af275d0c6207ef43ceee8c498a5d7a26b8157a32d3fdf361e64371628c82604051610bb7919061330a565b60405180910390a25b5050505050505050565b7f0f000000000000000000000000000000000000000000000000000000000000006060806000808083610bfb612cf2565b97989097965046955030945091925090565b61040d338383612036565b60603415610c2557600080fd5b610c37610c328484612d38565b612dcf565b92915050565b6000806000610c4b8461143e565b919450925090506002836006811115610c6657610c66613862565b14610d25576001836006811115610c7f57610c7f613862565b03610cf257610cb1338360000151600001518460000151602001518460c00151600081518110610aa157610aa1613965565b80608001517fa576d0af275d0c6207ef43ceee8c498a5d7a26b8157a32d3fdf361e64371628c82604051610ce5919061330a565b60405180910390a2610d97565b6000836006811115610d0657610d06613862565b03610d205781518051602090910151610d20913391610d9d565b610d97565b6002836006811115610d3957610d39613862565b03610d9757815180516020909101516080830151610d5a9233929091612a3e565b80608001517fa576d0af275d0c6207ef43ceee8c498a5d7a26b8157a32d3fdf361e64371628c82604051610d8e919061330a565b60405180910390a25b50505050565b806001600160a01b0316600003610de0576040517ff6fa545000000000000000000000000000000000000000000000000000000000815260040160405180910390fd5b600a6001600160a01b0382161015610e2f576040517f7ccfd2ff0000000000000000000000000000000000000000000000000000000081526001600160a01b03821660048201526024016105ad565b6040516370a0823160e01b81526001600160a01b038481166004830152600091908416906370a0823190602401602060405180830381865afa158015610e79573d6000803e3d6000fd5b505050506040513d601f19601f82011682018060405250810190610e9d9190613994565b6040516370a0823160e01b81523060048201529091506000906001600160a01b038516906370a0823190602401602060405180830381865afa158015610ee7573d6000803e3d6000fd5b505050506040513d601f19601f82011682018060405250810190610f0b9190613994565b9050826001600160a01b0316821015610f62576040517ff0753367000000000000000000000000000000000000000000000000000000008152600481018390526001600160a01b03841660248201526044016105ad565b610f7c6001600160a01b0385811690879030908716612de0565b6040516370a0823160e01b815230600482015260009082906001600160a01b038716906370a0823190602401602060405180830381865afa158015610fc5573d6000803e3d6000fd5b505050506040513d601f19601f82011682018060405250810190610fe99190613994565b610ff391906136d3565b6001600160a01b0387811660008181526003602090815260408083208b8616808552908352928190208054870190555193851684529394509290917ff252e7564622d27c64805f4295d4aed7999599ad484da4eaa1377fc14df9f1d591015b60405180910390a3505050505050565b6040805160e0810182526000606082018181526080830182905260a0830182905260c083018290528252602082018190529181018290526110f960405180610100016040528060006001600160a01b0316815260200160008152602001600063ffffffff168152602001600063ffffffff168152602001600080191681526020016060815260200160608152602001606081525090565b6040805160e08101825260008082526020820181905291810182905260608082018390526080820183905260a082019290925260c081019190915261114160e08801886139ad565b81019061114e9190613b5e565b604080516001808252818301909252939750919550925060009190816020015b60408051608081018252600080825260208083018290529282018190526060820152825260001990920191018161116e579050509050604051806080016040528083600001516001600160a01b031660001b815260200183602001516001600160a01b0316815260200183606001516001600160a01b031660001b815260200183608001518152508160008151811061120957611209613965565b6020908102919091010152604080516001808252818301909252600091816020015b60408051608081018252600080825260208083018290529282018190526060820152825260001990920191018161122b575050604080516080810182528751516001600160a01b0390811682528683015116602082015291925081016112938a8a018b613406565b815260200146815250816000815181106112af576112af613965565b6020908102919091010152604080516001808252818301909252600091816020015b604080516060808201835260008083526020830152918101919091528152602001906001900390816112d1579050509050604051806060016040528061131a8660800151612e47565b67ffffffffffffffff16815260200185608001516001600160a01b031660001b81526020018b6040516020016113509190613d62565b6040516020818303038152906040528152508160008151811061137557611375613965565b60200260200101819052506040518061010001604052808b602001602081019061139f9190613891565b6001600160a01b0316815260608c013560208201526040016113c760a08d0160808e01613d75565b63ffffffff1681526020016113e260c08d0160a08e01613d75565b63ffffffff1681526020018b8660800151604051602001611404929190613d90565b6040516020818303038152906040528051906020012081526020018481526020018381526020018281525094505050505093509350939050565b6040805160e0810182526000606082018181526080830182905260a0830182905260c083018290528252602082018190529181018290526114d560405180610100016040528060006001600160a01b0316815260200160008152602001600063ffffffff168152602001600063ffffffff168152602001600080191681526020016060815260200160608152602001606081525090565b6040805160e08101825260008082526020820181905281830181905260608083018290526080830182905260a083019190915260c08201529061151a908601866139ad565b8101906115279190613b5e565b604080516001808252818301909252939750919550925060009190816020015b604080516080810182526000808252602080830182905292820181905260608201528252600019909201910181611547579050509050604051806080016040528083600001516001600160a01b031660001b815260200183602001516001600160a01b0316815260200183606001516001600160a01b031660001b81526020018360800151815250816000815181106115e2576115e2613965565b6020908102919091010152604080516001808252818301909252600091816020015b604080516080810182526000808252602080830182905292820181905260608201528252600019909201910181611604575050604080516080810182528751516001600160a01b039081168252868301518116602083015260a08701511691810191909152466060820152815191925090829060009061168657611686613965565b6020908102919091010152604080516001808252818301909252600091816020015b604080516060808201835260008083526020830152918101919091528152602001906001900390816116a857905050905060405180606001604052806116f18660800151612e47565b67ffffffffffffffff16815260200185608001516001600160a01b031660001b8152602001896040516020016117279190613df1565b6040516020818303038152906040528152508160008151811061174c5761174c613965565b6020026020010181905250604051806101000160405280336001600160a01b0316815260200146815260200163ffffffff801681526020018960000160208101906117979190613d75565b63ffffffff1681526020018986608001516040516020016117b9929190613e04565b604051602081830303815290604052805190602001208152602001848152602001838152602001828152509450505050509193909250565b60007f1e5451d2136e33c0a1379b24dc0c871dcdb037f365c77a29569fc51ff4e5b4aa846000015185602001518660400151876060015188608001518960a001518a60c001518b60e0015160405160200161185499989796959493929190613e17565b604051602081830303815290604052805190602001209050600061187782612e65565b90506000611886828686612f7d565b90503660011981013560f01c90033560601c5b6001600160a01b0316816001600160a01b03161461099a576040517f6cbfd82c00000000000000000000000000000000000000000000000000000000815260040160405180910390fd5b600a6001600160a01b0385161015611932576040517f7ccfd2ff0000000000000000000000000000000000000000000000000000000081526001600160a01b03851660048201526024016105ad565b6001600160a01b03878116600090815260046020908152604080832089851684529091529020549085161115611994576040517fee9f7c3e00000000000000000000000000000000000000000000000000000000815260040160405180910390fd5b6001600160a01b038781166000908152600460209081526040808320898516845290915281208054928716929091906119ce9084906136d3565b90915550600090506127103660011981013560f090811c909103603c0135901c6119fc9061ffff1687613ea5565b611a069190613ee5565b6040516370a0823160e01b81523060048201526001600160a01b0391821692506000918816906370a0823190602401602060405180830381865afa158015611a52573d6000803e3d6000fd5b505050506040513d601f19601f82011682018060405250810190611a769190613994565b9050611b023660011981013560f01c90036014013560601c6001600160a01b03166316a084496040518163ffffffff1660e01b81526004016020604051808303816000875af1158015611acd573d6000803e3d6000fd5b505050506040513d601f19601f82011682018060405250810190611af19190613f3a565b6001600160a01b0389169084613024565b6040516370a0823160e01b81523060048201526000906001600160a01b038916906370a0823190602401602060405180830381865afa158015611b49573d6000803e3d6000fd5b505050506040513d601f19601f82011682018060405250810190611b6d9190613994565b611b7790836136d3565b90508315611cd7576040516370a0823160e01b81523060048201526000906001600160a01b038a16906370a0823190602401602060405180830381865afa158015611bc6573d6000803e3d6000fd5b505050506040513d601f19601f82011682018060405250810190611bea9190613994565b9050611c148a611c03846001600160a01b038c166136d3565b6001600160a01b038c169190613024565b6040516370a0823160e01b81523060048201526000906001600160a01b038b16906370a0823190602401602060405180830381865afa158015611c5b573d6000803e3d6000fd5b505050506040513d601f19601f82011682018060405250810190611c7f9190613994565b611c8990836136d3565b6040516001600160a01b038083168252919250818c16918d16907f261f61e2ebf752ba735e34549daf998db76c008224631402de807aafe5dc09869060200160405180910390a35050611d0b565b6001600160a01b0389811660009081526003602090815260408083208c851684529091529020805491891683900390910190555b604080516001600160a01b038981168252838116602083015291810188905260608101879052818b16918c16907f175db405132d8c2a71c52e9106464f2596ce376af3ea904079ed95a38e3941d79060800160405180910390a350505050505050505050565b836001600160a01b0316600003611db4576040517ff6fa545000000000000000000000000000000000000000000000000000000000815260040160405180910390fd5b6001600160a01b03878116600090815260036020908152604080832089851684529091529020549085161115611e16576040517f06bc047a00000000000000000000000000000000000000000000000000000000815260040160405180910390fd5b6001600160a01b03878116600090815260036020908152604080832089851684529091528120805492871692909190611e509084906136d3565b90915550508015611fa3576040516370a0823160e01b81523060048201526000906001600160a01b038716906370a0823190602401602060405180830381865afa158015611ea2573d6000803e3d6000fd5b505050506040513d601f19601f82011682018060405250810190611ec69190613994565b9050611ee06001600160a01b038781169089908816613024565b6040516370a0823160e01b81523060048201526000906001600160a01b038816906370a0823190602401602060405180830381865afa158015611f27573d6000803e3d6000fd5b505050506040513d601f19601f82011682018060405250810190611f4b9190613994565b611f5590836136d3565b6040516001600160a01b038083168252919250818916918a16907f261f61e2ebf752ba735e34549daf998db76c008224631402de807aafe5dc09869060200160405180910390a35050611fd4565b6001600160a01b03868116600090815260036020908152604080832089851684529091529020805491861690910190555b604080516001600160a01b0386811682526000602083015291810185905260608101849052818816918916907f175db405132d8c2a71c52e9106464f2596ce376af3ea904079ed95a38e3941d79060800160405180910390a350505050505050565b806001600160a01b0316600003612079576040517ff6fa545000000000000000000000000000000000000000000000000000000000815260040160405180910390fd5b6001600160a01b038381166000908152600360209081526040808320938616808452939091528082205490516370a0823160e01b81523060048201529092906370a0823190602401602060405180830381865afa1580156120de573d6000803e3d6000fd5b505050506040513d601f19601f820116820180604052508101906121029190613994565b9050826001600160a01b0316821015612159576040517ff0753367000000000000000000000000000000000000000000000000000000008152600481018390526001600160a01b03841660248201526044016105ad565b6121716001600160a01b038581169087908616613024565b6040516370a0823160e01b81523060048201526000906001600160a01b038616906370a0823190602401602060405180830381865afa1580156121b8573d6000803e3d6000fd5b505050506040513d601f19601f820116820180604052508101906121dc9190613994565b6121e690836136d3565b6001600160a01b038088166000908152600360209081526040808320938a168352929052908120805492935083929091906122229084906136d3565b90915550506040516001600160a01b03828116825280871691908816907f261f61e2ebf752ba735e34549daf998db76c008224631402de807aafe5dc098690602001611052565b6000818152600160208181526040808420815160a08101835281546001600160a01b038082168084527401000000000000000000000000000000000000000090920460ff16151595830195909552948201548416928101929092526002810154909216606082015260039091015460808201529103612314576040517fd5516fcd00000000000000000000000000000000000000000000000000000000815260040160405180910390fd5b806020015115612350576040517f099126c500000000000000000000000000000000000000000000000000000000815260040160405180910390fd5b600082815260016020908152604080832080547fffffffffffffffffffffff00ffffffffffffffffffffffffffffffffffffffff1674010000000000000000000000000000000000000000179055600282529182902043905560808301518251858152918201527fb32453cdd7924beed88de23eeffba5936de9b7931976857f57aa893b623dfd3f91016107ce565b6001600160a01b03821615806123fc57506001600160a01b038316155b15612433576040517ff6fa545000000000000000000000000000000000000000000000000000000000815260040160405180910390fd5b600a6001600160a01b0383161015612482576040517f7ccfd2ff0000000000000000000000000000000000000000000000000000000081526001600160a01b03831660048201526024016105ad565b600a6001600160a01b03841610156124d1576040517f7ccfd2ff0000000000000000000000000000000000000000000000000000000081526001600160a01b03841660048201526024016105ad565b6001600160a01b0380861660009081526003602090815260408083208885168452909152902054612503918416613f57565b836001600160a01b03161115612545576040517f06bc047a00000000000000000000000000000000000000000000000000000000815260040160405180910390fd5b6040516370a0823160e01b81526001600160a01b038681166004830152600091908616906370a0823190602401602060405180830381865afa15801561258f573d6000803e3d6000fd5b505050506040513d601f19601f820116820180604052508101906125b39190613994565b6040516370a0823160e01b81523060048201529091506000906001600160a01b038716906370a0823190602401602060405180830381865afa1580156125fd573d6000803e3d6000fd5b505050506040513d601f19601f820116820180604052508101906126219190613994565b9050836001600160a01b0316821015612678576040517ff0753367000000000000000000000000000000000000000000000000000000008152600481018390526001600160a01b03851660248201526044016105ad565b6126926001600160a01b0387811690899030908816612de0565b6040516370a0823160e01b815230600482015260009082906001600160a01b038916906370a0823190602401602060405180830381865afa1580156126db573d6000803e3d6000fd5b505050506040513d601f19601f820116820180604052508101906126ff9190613994565b61270991906136d3565b90506040518060a00160405280876001600160a01b03168152602001600015158152602001886001600160a01b03168152602001896001600160a01b0316815260200185815250600160008054815260200190815260200160002060008201518160000160006101000a8154816001600160a01b0302191690836001600160a01b0316021790555060208201518160000160146101000a81548160ff02191690831515021790555060408201518160010160006101000a8154816001600160a01b0302191690836001600160a01b0316021790555060608201518160020160006101000a8154816001600160a01b0302191690836001600160a01b0316021790555060808201518160030155905050856001600160a01b031681111561287b576001600160a01b0388811660008181526004602090815260408083208c86168085529083528184208054968d169687019055938352600382528083209383529290522080549183039091019055612947565b856001600160a01b031681036128bb576001600160a01b038089166000908152600460209081526040808320938b16835292905220805482019055612947565b856001600160a01b0316811015612947576128df816001600160a01b0388166136d3565b6001600160a01b03808a166000908152600360209081526040808320938c16835292905290812080549091906129169084906136d3565b90915550506001600160a01b038089166000908152600460209081526040808320938b168352929052208054820190555b60008054908061295683613f6a565b91905055505050505050505050565b60007fe3bf10b5739e335154720a95c12f13044f17663dbd6ca01ac402fbc114960ecd6129956020860186613891565b6129a56040870160208801613891565b604087013560608801356129bf60a08a0160808b01613d75565b6129cf60c08b0160a08c01613d75565b60c08b01356129e160e08d018d6139ad565b6040516020016129fa9a99989796959493929190613f84565b6040516020818303038152906040528051906020012090506000612a1d82612e65565b90506000612a2c828686612f7d565b90506118996040870160208801613891565b600a6001600160a01b0383161015612a8d576040517f7ccfd2ff0000000000000000000000000000000000000000000000000000000081526001600160a01b03831660048201526024016105ad565b6001600160a01b0380851660009081526003602090815260408083208785168452909152902054908316811015612b02576040517ff0753367000000000000000000000000000000000000000000000000000000008152600481018290526001600160a01b03841660248201526044016105ad565b600080548152600160205260409020546001600160a01b03168015612b59576000546040517f5f3ee3d20000000000000000000000000000000000000000000000000000000081526004016105ad91815260200190565b6040805160a0810182526001600160a01b03808716808352600060208085018281528b85168688018181528e87166060890181815260808a018e81528754885260018088528c89209b518c549751151574010000000000000000000000000000000000000000027fffffffffffffffffffffff000000000000000000000000000000000000000000909816908c1617969096178b559251948a018054958a167fffffffffffffffffffffffff00000000000000000000000000000000000000009687161790555160028a018054919099169416939093179096559451600396870155825293845284812092815291909252918220805491929091612c5e9084906136d3565b90915550506001600160a01b0386811660008181526004602090815260408083208a86168085529083528184208054968b16968701905592548151958652918501919091528301869052917f3fdb103ebfd3f100a24e0604fce9e9d169cda2a78088244fab44283e0f6037c19060600160405180910390a3600080549080612ce583613f6a565b9190505550505050505050565b60408051808201909152600681527f4d6964726962000000000000000000000000000000000000000000000000000060208201526060612d32600261307d565b90509091565b600060405190506020815281816020015280604001808360051b808684378201808515612db7575b835187018035602082018337600038823584305af4612d82573d6000873e3d86fd5b5082810384523d815260209384019381013d6000823e60003d8201523d01601f0167ffffffffffffffe0169050818410612d60575b806040528485820360401b1794505050505092915050565b8060401c8167ffffffffffffffff16f35b60405181606052826040528360601b602c526f23b872dd000000000000000000000000600c52602060006064601c6000895af18060016000511416612e3857803d873b151710612e3857637939f4246000526004601cfd5b50600060605260405250505050565b6000680100000000000000008210612e6157612e6161309c565b5090565b7f00000000000000000000000000000000000000000000000000000000000000007f000000000000000000000000000000000000000000000000000000000000000030147f0000000000000000000000000000000000000000000000000000000000000000461416612f585750604080517f8b73c3c69bb8fe3d512ecc4cf759cc79239f7b179b0ffacaa9a75d522b39400f81527f000000000000000000000000000000000000000000000000000000000000000060208201527f00000000000000000000000000000000000000000000000000000000000000009181019190915246606082015230608082015260a090205b67190100000000000060005280601a5281603a52604260182090506000603a52919050565b60006040518260408114612f995760418114612fd9575061300e565b60208581013560ff81901c601b0190915285356040527f7fffffffffffffffffffffffffffffffffffffffffffffffffffffffffffffff16606052612feb565b604085013560001a6020526040856040375b5084600052602060016080600060015afa5191506000606052806040523d61301c575b638baa579f6000526004601cfd5b509392505050565b81601452806034526fa9059cbb00000000000000000000000060005260206000604460106000875af1806001600051141661307257803d853b151710613072576390b8ec186000526004601cfd5b506000603452505050565b6060604051604081016040526001815282603001602082015392915050565b6335278d126000526004601cfd5b6001600160a01b03811681146130bf57600080fd5b50565b80356130cd816130aa565b919050565b600080604083850312156130e557600080fd5b82356130f0816130aa565b91506020830135613100816130aa565b809150509250929050565b6000610100828403121561311e57600080fd5b50919050565b60008083601f84011261313657600080fd5b50813567ffffffffffffffff81111561314e57600080fd5b60208301915083602082850101111561316657600080fd5b9250929050565b60008060006040848603121561318257600080fd5b833567ffffffffffffffff81111561319957600080fd5b6131a58682870161310b565b935050602084013567ffffffffffffffff8111156131c257600080fd5b6131ce86828701613124565b9497909650939450505050565b600081518084526020840193506020830160005b8281101561323357815180518752602081015160208801526040810151604088015260608101516060880152506080860195506020820191506001810190506131ef565b5093949350505050565b6000815180845260005b8181101561326357602081850181015186830182015201613247565b506000602082860101526020601f19601f83011685010191505092915050565b600082825180855260208501945060208160051b8301016020850160005b838110156132fe57601f19858403018852815167ffffffffffffffff81511684526020810151602085015260408101519050606060408501526132e7606085018261323d565b6020998a01999094509290920191506001016132a1565b50909695505050505050565b602081526133246020820183516001600160a01b03169052565b6020820151604082015260006040830151613347606084018263ffffffff169052565b50606083015163ffffffff8116608084015250608083015160a083015260a083015161010060c084015261337f6101208401826131db565b905060c0840151601f198483030160e085015261339c82826131db565b91505060e0840151601f19848303016101008501526133bb8282613283565b95945050505050565b6000602082840312156133d657600080fd5b813567ffffffffffffffff8111156133ed57600080fd5b8201606081850312156133ff57600080fd5b9392505050565b60006020828403121561341857600080fd5b5035919050565b60008060008060006060868803121561343757600080fd5b85359450602086013567ffffffffffffffff81111561345557600080fd5b61346188828901613124565b909550935050604086013567ffffffffffffffff81111561348157600080fd5b61348d88828901613124565b969995985093965092949392505050565b6000806000806000606086880312156134b657600080fd5b853567ffffffffffffffff8111156134cd57600080fd5b6134d98882890161310b565b955050602086013567ffffffffffffffff81111561345557600080fd5b7fff000000000000000000000000000000000000000000000000000000000000008816815260e06020820152600061353160e083018961323d565b8281036040840152613543818961323d565b606084018890526001600160a01b038716608085015260a0840186905283810360c08501528451808252602080870193509091019060005b8181101561359957835183526020938401939092019160010161357b565b50909b9a5050505050505050505050565b600080602083850312156135bd57600080fd5b823567ffffffffffffffff8111156135d457600080fd5b8301601f810185136135e557600080fd5b803567ffffffffffffffff8111156135fc57600080fd5b8560208260051b840101111561361157600080fd5b6020919091019590945092505050565b6000602082016020835280845180835260408501915060408160051b86010192506020860160005b82811015613698577fffffffffffffffffffffffffffffffffffffffffffffffffffffffffffffffc087860301845261368385835161323d565b94506020938401939190910190600101613649565b50929695505050505050565b7f4e487b7100000000000000000000000000000000000000000000000000000000600052601160045260246000fd5b81810381811115610c3757610c376136a4565b7f4e487b7100000000000000000000000000000000000000000000000000000000600052604160045260246000fd5b604051610100810167ffffffffffffffff81118282101715613739576137396136e6565b60405290565b60405160e0810167ffffffffffffffff81118282101715613739576137396136e6565b6040516060810167ffffffffffffffff81118282101715613739576137396136e6565b6040516080810167ffffffffffffffff81118282101715613739576137396136e6565b8035600281106130cd57600080fd5b8035600781106130cd57600080fd5b60006101008284031280156137da57600080fd5b506137e3613715565b82356137ee816130aa565b81526137fc602084016137a8565b602082015261380d604084016137b7565b604082015261381e606084016130c2565b606082015261382f608084016130c2565b608082015261384060a084016130c2565b60a082015260c0838101359082015260e0928301359281019290925250919050565b7f4e487b7100000000000000000000000000000000000000000000000000000000600052602160045260246000fd5b6000602082840312156138a357600080fd5b81356133ff816130aa565b818352818160208501375060006020828401015260006020601f19601f840116840101905092915050565b6001600160a01b0385168152600084516001600160a01b0381511660208401526001600160a01b03602082015116604084015265ffffffffffff604082015116606084015265ffffffffffff6060820151166080840152506001600160a01b0360208601511660a0830152604085015160c083015261010060e083015261047c610100830184866138ae565b7f4e487b7100000000000000000000000000000000000000000000000000000000600052603260045260246000fd5b6000602082840312156139a657600080fd5b5051919050565b60008083357fffffffffffffffffffffffffffffffffffffffffffffffffffffffffffffffe18436030181126139e257600080fd5b83018035915067ffffffffffffffff8211156139fd57600080fd5b60200191503681900382131561316657600080fd5b803565ffffffffffff811681146130cd57600080fd5b600082601f830112613a3957600080fd5b813567ffffffffffffffff811115613a5357613a536136e6565b604051601f8201601f19908116603f0116810167ffffffffffffffff81118282101715613a8257613a826136e6565b604052818152838201602001851015613a9a57600080fd5b816020850160208301376000918101602001919091529392505050565b600060e08284031215613ac957600080fd5b613ad161373f565b9050613adc826130c2565b8152613aea602083016130c2565b6020820152613afb604083016130c2565b6040820152613b0c606083016130c2565b606082015260808281013590820152613b2760a083016130c2565b60a082015260c082013567ffffffffffffffff811115613b4657600080fd5b613b5284828501613a28565b60c08301525092915050565b6000806000838503610100811215613b7557600080fd5b613b7e856137b7565b9350601f190160c0811215613b9257600080fd5b613b9a613762565b6080821215613ba857600080fd5b613bb0613785565b91506020860135613bc0816130aa565b82526040860135613bd0816130aa565b6020830152613be160608701613a12565b6040830152613bf260808701613a12565b6060830152818152613c0660a087016130c2565b602082015260c0860135604082015292505060e084013567ffffffffffffffff811115613c3257600080fd5b613c3e86828701613ab7565b9150509250925092565b803563ffffffff811681146130cd57600080fd5b60008083357fffffffffffffffffffffffffffffffffffffffffffffffffffffffffffffffe1843603018112613c9157600080fd5b830160208101925035905067ffffffffffffffff811115613cb157600080fd5b80360382131561316657600080fd5b60008135613ccd816130aa565b6001600160a01b03168352613ce4602083016130c2565b6001600160a01b031660208401526040828101359084015260608083013590840152613d1260808301613c48565b63ffffffff166080840152613d2960a08301613c48565b63ffffffff1660a084015260c08281013590840152613d4b60e0830183613c5c565b61010060e08601526133bb610100860182846138ae565b6020815260006133ff6020830184613cc0565b600060208284031215613d8757600080fd5b6133ff82613c48565b604081526000613da36040830185613cc0565b90508260208301529392505050565b63ffffffff613dc082613c48565b168252602081810135908301526000613ddc6040830183613c5c565b606060408601526133bb6060860182846138ae565b6020815260006133ff6020830184613db2565b604081526000613da36040830185613db2565b8981526001600160a01b0389166020820152610120810160028910613e3e57613e3e613862565b88604083015260078810613e5457613e54613862565b8760608301526001600160a01b03871660808301526001600160a01b03861660a0830152613e8d60c08301866001600160a01b03169052565b60e08201939093526101000152979650505050505050565b60006001600160a01b0382166001600160a01b0384166001600160a01b038183021692508183048114821517613edd57613edd6136a4565b505092915050565b60006001600160a01b03831680613f25577f4e487b7100000000000000000000000000000000000000000000000000000000600052601260045260246000fd5b806001600160a01b0384160491505092915050565b600060208284031215613f4c57600080fd5b81516133ff816130aa565b80820180821115610c3757610c376136a4565b60006000198203613f7d57613f7d6136a4565b5060010190565b8a81526001600160a01b038a1660208201526001600160a01b038916604082015287606082015286608082015263ffffffff861660a082015263ffffffff851660c08201528360e08201526101206101008201526000613fe9610120830184866138ae565b9c9b50505050505050505050505056fea2646970667358221220def54baa6194b42f60ec6af815a692167fd441e567b4c0e912ddb3ac5b8e49e464736f6c634300081e0033",
    "linkReferences": {}
  },
  "methodIdentifiers": {
    "MIN_ORDER_SIZE()": "d3f82d8e",
    "VERSION()": "ffa1ad74",
    "deposit(address,uint160)": "03fde255",
    "destinationSettlers(uint256)": "8d7b2227",
    "eip712Domain()": "84b0196e",
    "factory()": "c45a0155",
    "fill(bytes32,bytes,bytes)": "82e2c43f",
    "lockedTradeBalance(address,address)": "7e8d29d6",
    "multicall(bytes[])": "ac9650d8",
    "open((uint32,bytes32,bytes))": "e917a962",
    "openFor((address,address,uint256,uint256,uint32,uint32,bytes32,bytes),bytes,bytes)": "844fac8e",
    "owner()": "8da5cb5b",
    "resolve((uint32,bytes32,bytes))": "41b477dd",
    "resolveFor((address,address,uint256,uint256,uint32,uint32,bytes32,bytes),bytes)": "22bcd51a",
    "topOrderId()": "99a3bd23",
    "tradeBalance(address,address)": "19d5f0c3",
    "unlockForCanceledOrder(uint256)": "58bdac3c",
    "withdraw(address,uint160)": "8b1db0f3"
  },
  "id": 30
}