{"abi":[{"type":"constructor","inputs":[{"name":"_initialOwner","type":"address","internalType":"address"},{"name":"_factory","type":"address","internalType":"address"},{"name":"_aspensFee","type":"uint16","internalType":"uint16"}],"stateMutability":"nonpayable"},{"type":"fallback","stateMutability":"nonpayable"},{"type":"function","name":"DENOMINATOR","inputs":[],"outputs":[{"name":"","type":"uint16","internalType":"uint16"}],"stateMutability":"view"},{"type":"function","name":"MIN_ORDER_SIZE","inputs":[],"outputs":[{"name":"","type":"uint16","internalType":"uint16"}],"stateMutability":"view"},{"type":"function","name":"cancelOrder","inputs":[{"name":"_orderId","type":"uint256","internalType":"uint256"}],"outputs":[],"stateMutability":"nonpayable"},{"type":"function","name":"cancelOwnershipHandover","inputs":[],"outputs":[],"stateMutability":"payable"},{"type":"function","name":"completeOwnershipHandover","inputs":[{"name":"pendingOwner","type":"address","internalType":"address"}],"outputs":[],"stateMutability":"payable"},{"type":"function","name":"deposit","inputs":[{"name":"_tokenContract","type":"address","internalType":"address"},{"name":"_amount","type":"uint256","internalType":"uint256"}],"outputs":[],"stateMutability":"payable"},{"type":"function","name":"factory","inputs":[],"outputs":[{"name":"","type":"address","internalType":"address"}],"stateMutability":"view"},{"type":"function","name":"getBalance","inputs":[{"name":"_depositorAddress","type":"address","internalType":"address"},{"name":"_tokenContract","type":"address","internalType":"address"}],"outputs":[{"name":"_balance","type":"uint256","internalType":"uint256"}],"stateMutability":"view"},{"type":"function","name":"getLockedBalance","inputs":[{"name":"_depositorAddress","type":"address","internalType":"address"},{"name":"_tokenContract","type":"address","internalType":"address"}],"outputs":[{"name":"_lockedBalance","type":"uint256","internalType":"uint256"}],"stateMutability":"view"},{"type":"function","name":"getTotalBalance","inputs":[],"outputs":[{"name":"_balance","type":"uint256","internalType":"uint256"}],"stateMutability":"view"},{"type":"function","name":"getVersion","inputs":[],"outputs":[{"name":"_version","type":"uint8","internalType":"uint8"}],"stateMutability":"pure"},{"type":"function","name":"lockForOrder","inputs":[{"name":"_depositorAddress","type":"address","internalType":"address"},{"name":"_tokenContract","type":"address","internalType":"address"},{"name":"_amount","type":"uint256","internalType":"uint256"}],"outputs":[],"stateMutability":"nonpayable"},{"type":"function","name":"multicall","inputs":[{"name":"data","type":"bytes[]","internalType":"bytes[]"}],"outputs":[{"name":"","type":"bytes[]","internalType":"bytes[]"}],"stateMutability":"payable"},{"type":"function","name":"owner","inputs":[],"outputs":[{"name":"result","type":"address","internalType":"address"}],"stateMutability":"view"},{"type":"function","name":"ownershipHandoverExpiresAt","inputs":[{"name":"pendingOwner","type":"address","internalType":"address"}],"outputs":[{"name":"result","type":"uint256","internalType":"uint256"}],"stateMutability":"view"},{"type":"function","name":"renounceOwnership","inputs":[],"outputs":[],"stateMutability":"payable"},{"type":"function","name":"requestOwnershipHandover","inputs":[],"outputs":[],"stateMutability":"payable"},{"type":"function","name":"settleMaker","inputs":[{"name":"_fromLockedAddress","type":"address","internalType":"address"},{"name":"_toAddress","type":"address","internalType":"address"},{"name":"_tokenContract","type":"address","internalType":"address"},{"name":"_amount","type":"uint256","internalType":"uint256"}],"outputs":[],"stateMutability":"nonpayable"},{"type":"function","name":"settleTaker","inputs":[{"name":"_fromAddress","type":"address","internalType":"address"},{"name":"_toAddress","type":"address","internalType":"address"},{"name":"_tokenContract","type":"address","internalType":"address"},{"name":"_amount","type":"uint256","internalType":"uint256"}],"outputs":[],"stateMutability":"nonpayable"},{"type":"function","name":"topOrderId","inputs":[],"outputs":[{"name":"","type":"uint256","internalType":"uint256"}],"stateMutability":"view"},{"type":"function","name":"transferOwnership","inputs":[{"name":"newOwner","type":"address","internalType":"address"}],"outputs":[],"stateMutability":"payable"},{"type":"function","name":"unlockForCanceledOrder","inputs":[{"name":"_depositorAddress","type":"address","internalType":"address"},{"name":"_orderId","type":"uint256","internalType":"uint256"}],"outputs":[],"stateMutability":"nonpayable"},{"type":"function","name":"whoami","inputs":[],"outputs":[{"name":"_iAm","type":"address","internalType":"address"}],"stateMutability":"view"},{"type":"function","name":"withdraw","inputs":[{"name":"_tokenContract","type":"address","internalType":"address"},{"name":"_amount","type":"uint256","internalType":"uint256"}],"outputs":[],"stateMutability":"nonpayable"},{"type":"event","name":"LockedForOrder","inputs":[{"name":"user","type":"address","indexed":true,"internalType":"address"},{"name":"tokenContract","type":"address","indexed":true,"internalType":"address"},{"name":"amount","type":"uint256","indexed":false,"internalType":"uint256"},{"name":"orderId","type":"uint256","indexed":false,"internalType":"uint256"}],"anonymous":false},{"type":"event","name":"OrderCanceled","inputs":[{"name":"orderId","type":"uint256","indexed":false,"internalType":"uint256"}],"anonymous":false},{"type":"event","name":"OwnershipHandoverCanceled","inputs":[{"name":"pendingOwner","type":"address","indexed":true,"internalType":"address"}],"anonymous":false},{"type":"event","name":"OwnershipHandoverRequested","inputs":[{"name":"pendingOwner","type":"address","indexed":true,"internalType":"address"}],"anonymous":false},{"type":"event","name":"OwnershipTransferred","inputs":[{"name":"oldOwner","type":"address","indexed":true,"internalType":"address"},{"name":"newOwner","type":"address","indexed":true,"internalType":"address"}],"anonymous":false},{"type":"event","name":"TokenDeposited","inputs":[{"name":"user","type":"address","indexed":true,"internalType":"address"},{"name":"tokenContract","type":"address","indexed":true,"internalType":"address"},{"name":"amount","type":"uint256","indexed":false,"internalType":"uint256"}],"anonymous":false},{"type":"event","name":"TokenWithdrawn","inputs":[{"name":"user","type":"address","indexed":true,"internalType":"address"},{"name":"tokenContract","type":"address","indexed":true,"internalType":"address"},{"name":"amount","type":"uint256","indexed":false,"internalType":"uint256"}],"anonymous":false},{"type":"event","name":"TradeSettled","inputs":[{"name":"maker","type":"address","indexed":true,"internalType":"address"},{"name":"taker","type":"address","indexed":true,"internalType":"address"},{"name":"amount","type":"uint256","indexed":false,"internalType":"uint256"},{"name":"fees","type":"uint256","indexed":false,"internalType":"uint256"}],"anonymous":false},{"type":"event","name":"UnlockedForCanceledOrder","inputs":[{"name":"orderId","type":"uint256","indexed":false,"internalType":"uint256"}],"anonymous":false},{"type":"error","name":"AlreadyInitialized","inputs":[]},{"type":"error","name":"BLOCK_NOT_CONFIRMED","inputs":[]},{"type":"error","name":"FEE_WRONGLY_FORMATED","inputs":[]},{"type":"error","name":"INSUFFICIENT_AVAILABLE_BALANCE","inputs":[]},{"type":"error","name":"INSUFFICIENT_BALANCE","inputs":[{"name":"available","type":"uint256","internalType":"uint256"},{"name":"required","type":"uint256","internalType":"uint256"}]},{"type":"error","name":"MINIMUM_ORDER_AMOUNT","inputs":[{"name":"amount","type":"uint256","internalType":"uint256"}]},{"type":"error","name":"NewOwnerIsZeroAddress","inputs":[]},{"type":"error","name":"NoHandoverRequest","inputs":[]},{"type":"error","name":"ORDER_ALREADY_CANCELED","inputs":[]},{"type":"error","name":"ORDER_ALREADY_EXISTS","inputs":[{"name":"orderId","type":"uint256","internalType":"uint256"}]},{"type":"error","name":"ORDER_DOES_NOT_EXIST","inputs":[]},{"type":"error","name":"ORDER_LARGER_THAN_LOCKED_BALANCE","inputs":[]},{"type":"error","name":"ORDER_NOT_CANCELED","inputs":[]},{"type":"error","name":"Reentrancy","inputs":[]},{"type":"error","name":"Unauthorized","inputs":[]},{"type":"error","name":"ZERO_AMOUNT","inputs":[]}],"bytecode":{"object":"0x608060405234801561001057600080fd5b50604051611beb380380611beb83398101604081905261002f916100f5565b61271061ffff82161115610055576040516231634d60e51b815260040160405180910390fd5b61005e8361009d565b600080546001600160a01b0390931666010000000000000265ffffffff0001600160d01b031990931661ffff9092169190911791909117905550610143565b6001600160a01b0316638b78c6d8198190558060007f8be0079c531659141344cd1fd0a4f28419497f9722a3daafe3b4186f6b6457e08180a350565b80516001600160a01b03811681146100f057600080fd5b919050565b60008060006060848603121561010a57600080fd5b610113846100d9565b9250610121602085016100d9565b9150604084015161ffff8116811461013857600080fd5b809150509250925092565b611a99806101526000396000f3fe60806040526004361061018b5760003560e01c8063a76104eb116100d6578063d3f82d8e1161007f578063f2fde38b11610059578063f2fde38b14610418578063f3fef3a31461042b578063fee81cf41461044b57600080fd5b8063d3f82d8e146103aa578063d4fac45d146103bf578063f04e283e1461040557600080fd5b8063c45a0155116100b0578063c45a01551461031a578063c736887e14610344578063cff55f3a1461038a57600080fd5b8063a76104eb146102c7578063ac9650d8146102e7578063b3b36bb31461030757600080fd5b806354d1f13d116101385780638da5cb5b116101125780638da5cb5b1461025b578063918f86741461028857806399a3bd23146102b157600080fd5b806354d1f13d1461022b578063715018a614610233578063866353661461023b57600080fd5b8063364d92c311610169578063364d92c3146101d857806347e7ef24146101f8578063514fcac71461020b57600080fd5b80630d8e6e2c1461019057806312b58349146101b157806325692962146101ce575b600080fd5b34801561019c57600080fd5b50604051600281526020015b60405180910390f35b3480156101bd57600080fd5b50475b6040519081526020016101a8565b6101d661047e565b005b3480156101e457600080fd5b506101d66101f336600461176a565b6104ce565b6101d66102063660046117ab565b61073f565b34801561021757600080fd5b506101d66102263660046117d7565b610a6d565b6101d6610b9e565b6101d6610bda565b34801561024757600080fd5b506101d66102563660046117ab565b610bee565b34801561026757600080fd5b50638b78c6d819545b6040516001600160a01b0390911681526020016101a8565b34801561029457600080fd5b5061029e61271081565b60405161ffff90911681526020016101a8565b3480156102bd57600080fd5b506101c060015481565b3480156102d357600080fd5b506101d66102e23660046117f0565b610e4d565b6102fa6102f5366004611841565b610fca565b6040516101a891906118b8565b34801561031357600080fd5b5033610270565b34801561032657600080fd5b5060005461027090660100000000000090046001600160a01b031681565b34801561035057600080fd5b506101c061035f366004611955565b6001600160a01b03918216600090815260056020908152604080832093909416825291909152205490565b34801561039657600080fd5b506101d66103a53660046117f0565b610fef565b3480156103b657600080fd5b5061029e600a81565b3480156103cb57600080fd5b506101c06103da366004611955565b6001600160a01b03918216600090815260046020908152604080832093909416825291909152205490565b6101d661041336600461198e565b6112fd565b6101d661042636600461198e565b61133d565b34801561043757600080fd5b506101d66104463660046117ab565b611364565b34801561045757600080fd5b506101c061046636600461198e565b63389a75e1600c908152600091909152602090205490565b60006202a30067ffffffffffffffff164201905063389a75e1600c5233600052806020600c2055337fdbf36a107da19e49527a7176a1babf963b4b0ff8cde35ee35d6cd8f1f9ac7e1d600080a250565b3068929eee149b4bd2126854036104ed5763ab143c066000526004601cfd5b3068929eee149b4bd212685561050161157b565b600a81101561052b5760405163e1c9685960e01b8152600481018290526024015b60405180910390fd5b6001600160a01b038084166000908152600460209081526040808320938616835292905220548181101561057c57604051633612e19f60e01b81526004810182905260248101839052604401610522565b60015460009081526002602052604090205480156105cc576001546040517f5f3ee3d200000000000000000000000000000000000000000000000000000000815260040161052291815260200190565b60408051606081018252848152600060208083018281526001600160a01b03808a168587018181526001805487526002865288872097518855935196909301805493518316610100027fffffffffffffffffffffff0000000000000000000000000000000000000000ff9715159790971674ffffffffffffffffffffffffffffffffffffffffff19909416939093179590951790915589168252600481528382209282529190915290812080548592906106879084906119c8565b90915550506001600160a01b0380861660009081526005602090815260408083209388168352929052208054840190556106bf611596565b836001600160a01b0316856001600160a01b03167f553ebca3333eaf9223d38567c2887b36803b20bc0c8a02ce1c12b4330281e20a8560015460405161070f929190918252602082015260400190565b60405180910390a360018054906000610727836119db565b919050555050503868929eee149b4bd2126855505050565b3068929eee149b4bd21268540361075e5763ab143c066000526004601cfd5b3068929eee149b4bd21268558060000361078b57604051630f6fa54560e41b815260040160405180910390fd5b600a8110156107b05760405163e1c9685960e01b815260048101829052602401610522565b6040516370a0823160e01b81523360048201526000906001600160a01b038416906370a0823190602401602060405180830381865afa1580156107f7573d6000803e3d6000fd5b505050506040513d601f19601f8201168201806040525081019061081b91906119f4565b6040516370a0823160e01b81523060048201529091506000906001600160a01b038516906370a0823190602401602060405180830381865afa158015610865573d6000803e3d6000fd5b505050506040513d601f19601f8201168201806040525081019061088991906119f4565b9050828210156108b657604051633612e19f60e01b81526004810183905260248101849052604401610522565b6040517fdd62ed3e0000000000000000000000000000000000000000000000000000000081523360048201523060248201526000906001600160a01b0386169063dd62ed3e90604401602060405180830381865afa15801561091c573d6000803e3d6000fd5b505050506040513d601f19601f8201168201806040525081019061094091906119f4565b90508381101561096d57604051633612e19f60e01b81526004810182905260248101859052604401610522565b6109826001600160a01b0386163330876115af565b6040516370a0823160e01b815230600482015260009083906001600160a01b038816906370a0823190602401602060405180830381865afa1580156109cb573d6000803e3d6000fd5b505050506040513d601f19601f820116820180604052508101906109ef91906119f4565b6109f991906119c8565b3360008181526004602090815260408083206001600160a01b038c16808552908352928190208054860190555184815293945090927ff1444b5cad7ce70cb018d1b8edc8618fe303f3c7f034d8d572a6e27facbf2bef910160405180910390a3505050503868929eee149b4bd21268555050565b3068929eee149b4bd212685403610a8c5763ab143c066000526004601cfd5b3068929eee149b4bd2126855610aa061157b565b6000818152600260205260408120549003610ae7576040517fd5516fcd00000000000000000000000000000000000000000000000000000000815260040160405180910390fd5b60008181526002602052604090206001015460ff1615610b33576040517f099126c500000000000000000000000000000000000000000000000000000000815260040160405180910390fd5b60008181526002602090815260408083206001908101805460ff19169091179055600382529182902043905590518281527fc41f4ceb2938876c35e61b705e9d2f18a02c4a26ce5e049a6308a943d46851b3910160405180910390a13868929eee149b4bd212685550565b63389a75e1600c523360005260006020600c2055337ffa7b8eab7da67f412cc9575ed43464468f9bfbae89d1675917346ca6d8fe3c92600080a2565b610be261157b565b610bec6000611616565b565b3068929eee149b4bd212685403610c0d5763ab143c066000526004601cfd5b3068929eee149b4bd2126855610c2161157b565b6000818152600260209081526040918290208251606081018452815480825260019092015460ff81161515938201939093526101009092046001600160a01b03169282019290925290600a1115610c9157805160405163e1c9685960e01b81526004810191909152602401610522565b80516001600160a01b03808516600090815260056020908152604080832081870151909416835292905220541015610cdc5760405163774fbe1f60e11b815260040160405180910390fd5b8060200151610d17576040517f7c78d56400000000000000000000000000000000000000000000000000000000815260040160405180910390fd5b6000828152600360205260409020544311610d5e576040517fba179b3e00000000000000000000000000000000000000000000000000000000815260040160405180910390fd5b80516001600160a01b0380851660009081526005602090815260408083208187015190941683529290529081208054909190610d9b9084906119c8565b909155505080516001600160a01b038085166000908152600460209081526040808320818701519094168352928152828220805490940190935584815260029092528120908155600101805474ffffffffffffffffffffffffffffffffffffffffff19169055610e09611596565b6040518281527f88c7cee665a7459a4cc87c091d4d83c4c1bfdfc2b12617b0968074d5542be01a9060200160405180910390a1503868929eee149b4bd21268555050565b3068929eee149b4bd212685403610e6c5763ab143c066000526004601cfd5b3068929eee149b4bd2126855610e8061157b565b80600003610ea157604051630f6fa54560e41b815260040160405180910390fd5b6001600160a01b03808516600090815260046020908152604080832093861683529290522054811115610f00576040517f06bc047a00000000000000000000000000000000000000000000000000000000815260040160405180910390fd5b6001600160a01b03808516600090815260046020908152604080832093861683529290529081208054839290610f379084906119c8565b90915550506001600160a01b038084166000908152600460209081526040808320938616835292905220805482019055610f6f611596565b60408051828152600060208201526001600160a01b0380861692908716917f12fd94d5cf264b829aabc20b643cf600b03ba20f40f876f7c85f689c1c5e332c910160405180910390a33868929eee149b4bd212685550505050565b60603415610fd757600080fd5b610fe9610fe48484611654565b6116eb565b92915050565b3068929eee149b4bd21268540361100e5763ab143c066000526004601cfd5b3068929eee149b4bd212685561102261157b565b600a8110156110475760405163e1c9685960e01b815260048101829052602401610522565b6001600160a01b0380851660009081526005602090815260408083209386168352929052205481111561108d5760405163774fbe1f60e11b815260040160405180910390fd5b6001600160a01b038085166000908152600560209081526040808320938616835292905290812080548392906110c49084906119c8565b909155505060008054612710906110df9061ffff1684611a0d565b6110e99190611a24565b6040516370a0823160e01b81523060048201529091506000906001600160a01b038516906370a0823190602401602060405180830381865afa158015611133573d6000803e3d6000fd5b505050506040513d601f19601f8201168201806040525081019061115791906119f4565b90506111e6600060069054906101000a90046001600160a01b03166001600160a01b03166316a084496040518163ffffffff1660e01b81526004016020604051808303816000875af11580156111b1573d6000803e3d6000fd5b505050506040513d601f19601f820116820180604052508101906111d59190611a46565b6001600160a01b03861690846116fc565b6040516370a0823160e01b81523060048201526000906001600160a01b038616906370a0823190602401602060405180830381865afa15801561122d573d6000803e3d6000fd5b505050506040513d601f19601f8201168201806040525081019061125191906119f4565b61125b90836119c8565b6001600160a01b038088166000908152600460209081526040808320938a1683529290522080548287030190559050611292611596565b856001600160a01b0316876001600160a01b03167f12fd94d5cf264b829aabc20b643cf600b03ba20f40f876f7c85f689c1c5e332c86846040516112e0929190918252602082015260400190565b60405180910390a35050503868929eee149b4bd212685550505050565b61130561157b565b63389a75e1600c52806000526020600c20805442111561132d57636f5e88186000526004601cfd5b6000905561133a81611616565b50565b61134561157b565b8060601b61135b57637448fbae6000526004601cfd5b61133a81611616565b3068929eee149b4bd2126854036113835763ab143c066000526004601cfd5b3068929eee149b4bd2126855806000036113b057604051630f6fa54560e41b815260040160405180910390fd5b3360009081526004602081815260408084206001600160a01b03871680865292528084205490516370a0823160e01b8152309381019390935292916370a0823190602401602060405180830381865afa158015611411573d6000803e3d6000fd5b505050506040513d601f19601f8201168201806040525081019061143591906119f4565b90508282101561146257604051633612e19f60e01b81526004810183905260248101849052604401610522565b6114766001600160a01b03851633856116fc565b6040516370a0823160e01b81523060048201526000906001600160a01b038616906370a0823190602401602060405180830381865afa1580156114bd573d6000803e3d6000fd5b505050506040513d601f19601f820116820180604052508101906114e191906119f4565b6114eb90836119c8565b3360009081526004602090815260408083206001600160a01b038a1684529091528120805492935083929091906115239084906119c8565b90915550506040518181526001600160a01b0386169033907f8210728e7c071f615b840ee026032693858fbcd5e5359e67e438c890f59e56209060200160405180910390a35050503868929eee149b4bd21268555050565b638b78c6d819543314610bec576382b429006000526004601cfd5b61159e61157b565b6000805465ffffffff000019169055565b60405181606052826040528360601b602c526f23b872dd000000000000000000000000600c52602060006064601c6000895af1806001600051141661160757803d873b15171061160757637939f4246000526004601cfd5b50600060605260405250505050565b638b78c6d81980546001600160a01b039092169182907f8be0079c531659141344cd1fd0a4f28419497f9722a3daafe3b4186f6b6457e0600080a355565b600060405190506020815281816020015280604001808360051b8086843782018085156116d3575b835187018035602082018337600038823584305af461169e573d6000873e3d86fd5b5082810384523d815260209384019381013d6000823e60003d8201523d01601f0167ffffffffffffffe016905081841061167c575b806040528485820360401b1794505050505092915050565b8060401c8167ffffffffffffffff16f35b81601452806034526fa9059cbb00000000000000000000000060005260206000604460106000875af1806001600051141661174a57803d853b15171061174a576390b8ec186000526004601cfd5b506000603452505050565b6001600160a01b038116811461133a57600080fd5b60008060006060848603121561177f57600080fd5b833561178a81611755565b9250602084013561179a81611755565b929592945050506040919091013590565b600080604083850312156117be57600080fd5b82356117c981611755565b946020939093013593505050565b6000602082840312156117e957600080fd5b5035919050565b6000806000806080858703121561180657600080fd5b843561181181611755565b9350602085013561182181611755565b9250604085013561183181611755565b9396929550929360600135925050565b6000806020838503121561185457600080fd5b823567ffffffffffffffff81111561186b57600080fd5b8301601f8101851361187c57600080fd5b803567ffffffffffffffff81111561189357600080fd5b8560208260051b84010111156118a857600080fd5b6020919091019590945092505050565b6000602082016020835280845180835260408501915060408160051b86010192506020860160005b8281101561194957868503603f190184528151805180875260005b81811015611917576020818401810151898301820152016118fb565b506000602082890101526020601f19601f830116880101965050506020820191506020840193506001810190506118e0565b50929695505050505050565b6000806040838503121561196857600080fd5b823561197381611755565b9150602083013561198381611755565b809150509250929050565b6000602082840312156119a057600080fd5b81356119ab81611755565b9392505050565b634e487b7160e01b600052601160045260246000fd5b81810381811115610fe957610fe96119b2565b6000600182016119ed576119ed6119b2565b5060010190565b600060208284031215611a0657600080fd5b5051919050565b8082028115828204841417610fe957610fe96119b2565b600082611a4157634e487b7160e01b600052601260045260246000fd5b500490565b600060208284031215611a5857600080fd5b81516119ab8161175556fea264697066735822122099b92a043393e26d5775c376ad669ce2dd165bfcd3e9dffa43a2f41e3e592ac264736f6c634300081e0033","linkReferences":{}},"methodIdentifiers":{"DENOMINATOR()":"918f8674","MIN_ORDER_SIZE()":"d3f82d8e","cancelOrder(uint256)":"514fcac7","cancelOwnershipHandover()":"54d1f13d","completeOwnershipHandover(address)":"f04e283e","deposit(address,uint256)":"47e7ef24","factory()":"c45a0155","getBalance(address,address)":"d4fac45d","getLockedBalance(address,address)":"c736887e","getTotalBalance()":"12b58349","getVersion()":"0d8e6e2c","lockForOrder(address,address,uint256)":"364d92c3","multicall(bytes[])":"ac9650d8","owner()":"8da5cb5b","ownershipHandoverExpiresAt(address)":"fee81cf4","renounceOwnership()":"715018a6","requestOwnershipHandover()":"25692962","settleMaker(address,address,address,uint256)":"cff55f3a","settleTaker(address,address,address,uint256)":"a76104eb","topOrderId()":"99a3bd23","transferOwnership(address)":"f2fde38b","unlockForCanceledOrder(address,uint256)":"86635366","whoami()":"b3b36bb3","withdraw(address,uint256)":"f3fef3a3"},"id":36}